{
  "contractName": "Transaction",
  "abi": [
    {
      "constant": true,
      "inputs": [
        {
          "name": "",
          "type": "bytes32"
        }
      ],
      "name": "returnValue",
      "outputs": [
        {
          "name": "",
          "type": "uint64"
        }
      ],
      "payable": false,
      "stateMutability": "view",
      "type": "function"
    },
    {
      "constant": true,
      "inputs": [
        {
          "name": "",
          "type": "bytes32"
        }
      ],
      "name": "amountReceived",
      "outputs": [
        {
          "name": "",
          "type": "uint64"
        }
      ],
      "payable": false,
      "stateMutability": "view",
      "type": "function"
    },
    {
      "constant": true,
      "inputs": [
        {
          "name": "",
          "type": "uint256"
        }
      ],
      "name": "userList",
      "outputs": [
        {
          "name": "",
          "type": "bytes32"
        }
      ],
      "payable": false,
      "stateMutability": "view",
      "type": "function"
    },
    {
      "constant": true,
      "inputs": [
        {
          "name": "",
          "type": "bytes32"
        }
      ],
      "name": "duration",
      "outputs": [
        {
          "name": "",
          "type": "uint64"
        }
      ],
      "payable": false,
      "stateMutability": "view",
      "type": "function"
    },
    {
      "constant": true,
      "inputs": [
        {
          "name": "",
          "type": "bytes32"
        }
      ],
      "name": "frequency",
      "outputs": [
        {
          "name": "",
          "type": "string"
        }
      ],
      "payable": false,
      "stateMutability": "view",
      "type": "function"
    },
    {
      "inputs": [
        {
          "name": "userNames",
          "type": "bytes32[]"
        }
      ],
      "payable": false,
      "stateMutability": "nonpayable",
      "type": "constructor"
    },
    {
      "constant": true,
      "inputs": [
        {
          "name": "user",
          "type": "bytes32"
        }
      ],
      "name": "totalAmountFor",
      "outputs": [
        {
          "name": "",
          "type": "uint64"
        }
      ],
      "payable": false,
      "stateMutability": "view",
      "type": "function"
    },
    {
      "constant": false,
      "inputs": [
        {
          "name": "user",
          "type": "bytes32"
        },
        {
          "name": "amount",
          "type": "uint64"
        }
      ],
      "name": "setAmount",
      "outputs": [],
      "payable": false,
      "stateMutability": "nonpayable",
      "type": "function"
    },
    {
      "constant": false,
      "inputs": [
        {
          "name": "user",
          "type": "bytes32"
        },
        {
          "name": "freq",
          "type": "string"
        }
      ],
      "name": "setFrequency",
      "outputs": [],
      "payable": false,
      "stateMutability": "nonpayable",
      "type": "function"
    },
    {
      "constant": true,
      "inputs": [
        {
          "name": "user",
          "type": "bytes32"
        }
      ],
      "name": "getFrequency",
      "outputs": [
        {
          "name": "",
          "type": "string"
        }
      ],
      "payable": false,
      "stateMutability": "view",
      "type": "function"
    },
    {
      "constant": false,
      "inputs": [
        {
          "name": "user",
          "type": "bytes32"
        },
        {
          "name": "dura",
          "type": "uint64"
        }
      ],
      "name": "setDuration",
      "outputs": [],
      "payable": false,
      "stateMutability": "nonpayable",
      "type": "function"
    },
    {
      "constant": true,
      "inputs": [
        {
          "name": "user",
          "type": "bytes32"
        }
      ],
      "name": "getDuration",
      "outputs": [
        {
          "name": "",
          "type": "uint64"
        }
      ],
      "payable": false,
      "stateMutability": "view",
      "type": "function"
    },
    {
      "constant": false,
      "inputs": [
        {
          "name": "user",
          "type": "bytes32"
        },
        {
          "name": "returnVal",
          "type": "uint64"
        }
      ],
      "name": "setReturnValue",
      "outputs": [],
      "payable": false,
      "stateMutability": "nonpayable",
      "type": "function"
    },
    {
      "constant": true,
      "inputs": [
        {
          "name": "user",
          "type": "bytes32"
        }
      ],
      "name": "getReturnValue",
      "outputs": [
        {
          "name": "",
          "type": "uint64"
        }
      ],
      "payable": false,
      "stateMutability": "view",
      "type": "function"
    }
  ],
  "bytecode": "0x608060405234801561001057600080fd5b50604051610b72380380610b728339810180604052602081101561003357600080fd5b81019080805164010000000081111561004b57600080fd5b8281019050602081018481111561006157600080fd5b815185602082028301116401000000008211171561007e57600080fd5b5050929190505050806004908051906020019061009c9291906100a3565b5050610115565b8280548282559060005260206000209081019282156100df579160200282015b828111156100de5782518255916020019190600101906100c3565b5b5090506100ec91906100f0565b5090565b61011291905b8082111561010e5760008160009055506001016100f6565b5090565b90565b610a4e806101246000396000f3fe608060405234801561001057600080fd5b50600436106100ce5760003560e01c80637a42eff01161008c578063a37ba32a11610066578063a37ba32a1461040c578063c2d2d9b414610462578063c492926714610509578063d0fc1e7d1461054b576100ce565b80637a42eff0146102c357806392cedcfb146103885780639f4216e8146103ca576100ce565b80626c91fd146100d357806333642bbc146101295780634ca2f7d41461017f5780634fab4c6a146101d5578063710e3c731461022b578063748c827114610281575b600080fd5b6100ff600480360360208110156100e957600080fd5b81019080803590602001909291905050506105f2565b604051808267ffffffffffffffff1667ffffffffffffffff16815260200191505060405180910390f35b6101556004803603602081101561013f57600080fd5b8101908080359060200190929190505050610623565b604051808267ffffffffffffffff1667ffffffffffffffff16815260200191505060405180910390f35b6101ab6004803603602081101561019557600080fd5b810190808035906020019092919050505061064a565b604051808267ffffffffffffffff1667ffffffffffffffff16815260200191505060405180910390f35b610201600480360360208110156101eb57600080fd5b8101908080359060200190929190505050610671565b604051808267ffffffffffffffff1667ffffffffffffffff16815260200191505060405180910390f35b6102576004803603602081101561024157600080fd5b81019080803590602001909291905050506106a1565b604051808267ffffffffffffffff1667ffffffffffffffff16815260200191505060405180910390f35b6102c16004803603604081101561029757600080fd5b8101908080359060200190929190803567ffffffffffffffff1690602001909291905050506106d2565b005b610386600480360360408110156102d957600080fd5b81019080803590602001909291908035906020019064010000000081111561030057600080fd5b82018360208201111561031257600080fd5b8035906020019184600183028401116401000000008311171561033457600080fd5b91908080601f016020809104026020016040519081016040528093929190818152602001838380828437600081840152601f19601f820116905080830192505050505050509192919290505050610710565b005b6103c86004803603604081101561039e57600080fd5b8101908080359060200190929190803567ffffffffffffffff16906020019092919050505061073c565b005b6103f6600480360360208110156103e057600080fd5b810190808035906020019092919050505061077a565b6040518082815260200191505060405180910390f35b6104386004803603602081101561042257600080fd5b810190808035906020019092919050505061079b565b604051808267ffffffffffffffff1667ffffffffffffffff16815260200191505060405180910390f35b61048e6004803603602081101561047857600080fd5b81019080803590602001909291905050506107c2565b6040518080602001828103825283818151815260200191508051906020019080838360005b838110156104ce5780820151818401526020810190506104b3565b50505050905090810190601f1680156104fb5780820380516001836020036101000a031916815260200191505b509250505060405180910390f35b6105496004803603604081101561051f57600080fd5b8101908080359060200190929190803567ffffffffffffffff169060200190929190505050610872565b005b6105776004803603602081101561056157600080fd5b81019080803590602001909291905050506108c8565b6040518080602001828103825283818151815260200191508051906020019080838360005b838110156105b757808201518184015260208101905061059c565b50505050905090810190601f1680156105e45780820380516001836020036101000a031916815260200191505b509250505060405180910390f35b60006002600083815260200190815260200160002060009054906101000a900467ffffffffffffffff169050919050565b60026020528060005260406000206000915054906101000a900467ffffffffffffffff1681565b60006020528060005260406000206000915054906101000a900467ffffffffffffffff1681565b600080600083815260200190815260200160002060009054906101000a900467ffffffffffffffff169050919050565b60006001600083815260200190815260200160002060009054906101000a900467ffffffffffffffff169050919050565b806001600084815260200190815260200160002060006101000a81548167ffffffffffffffff021916908367ffffffffffffffff1602179055505050565b8060036000848152602001908152602001600020908051906020019061073792919061097d565b505050565b806002600084815260200190815260200160002060006101000a81548167ffffffffffffffff021916908367ffffffffffffffff1602179055505050565b6004818154811061078757fe5b906000526020600020016000915090505481565b60016020528060005260406000206000915054906101000a900467ffffffffffffffff1681565b60036020528060005260406000206000915090508054600181600116156101000203166002900480601f01602080910402602001604051908101604052809291908181526020018280546001816001161561010002031660029004801561086a5780601f1061083f5761010080835404028352916020019161086a565b820191906000526020600020905b81548152906001019060200180831161084d57829003601f168201915b505050505081565b8060008084815260200190815260200160002060008282829054906101000a900467ffffffffffffffff160192506101000a81548167ffffffffffffffff021916908367ffffffffffffffff1602179055505050565b6060600360008381526020019081526020016000208054600181600116156101000203166002900480601f0160208091040260200160405190810160405280929190818152602001828054600181600116156101000203166002900480156109715780601f1061094657610100808354040283529160200191610971565b820191906000526020600020905b81548152906001019060200180831161095457829003601f168201915b50505050509050919050565b828054600181600116156101000203166002900490600052602060002090601f016020900481019282601f106109be57805160ff19168380011785556109ec565b828001600101855582156109ec579182015b828111156109eb5782518255916020019190600101906109d0565b5b5090506109f991906109fd565b5090565b610a1f91905b80821115610a1b576000816000905550600101610a03565b5090565b9056fea165627a7a723058202473fb95bd36cef95b1cd91376ac714da21a74b5944e8b9bd40dc00d40e6c92e0029",
  "source": "pragma solidity >=0.4.17;\n// We have to specify what version of compiler this code will compile with\n\ncontract Transaction {\n  /* mapping field below is equivalent to an associative array or hash.\n  */\n  \n  mapping (bytes32 => uint64) public amountReceived;\n  mapping (bytes32 => uint64) public duration;\n  mapping (bytes32 => uint64) public returnValue;\n  mapping (bytes32 => string) public frequency;\n\n  \n  /* We will use an array of bytes32 to store the list of users\n  */\n  \n  bytes32[] public userList;\n\n  /* This is the constructor which will be called once when you\n  deploy the contract to the blockchain. When we deploy the contract,\n  we will pass an array of users for which users will give amount\n  */\n  constructor (bytes32[] memory userNames) public {\n    userList = userNames;\n  }\n\n  // This function returns the total amount a user has received so far\n  function totalAmountFor(bytes32 user) public view returns (uint64) {\n    return amountReceived[user];\n  }\n\n  // This function increments the vote count for the specified user. Equivalent to upvoting\n  function setAmount(bytes32 user, uint64 amount) public {\n    amountReceived[user] += amount;\n  }\n\n  function setFrequency(bytes32 user, string memory freq) public {\n    frequency[user] = freq;\n  }\n\n  function getFrequency(bytes32 user) public view returns (string memory) {\n    return frequency[user];\n  }\n\n  function setDuration(bytes32 user, uint64 dura) public {\n    duration[user] = dura;\n  }\n\n  function getDuration(bytes32 user) public view returns (uint64) {\n    return duration[user];\n  }\n\n  function setReturnValue(bytes32 user, uint64 returnVal) public {\n    returnValue[user] = returnVal;\n  }\n\n  function getReturnValue(bytes32 user) public view returns (uint64) {\n    return returnValue[user];\n  }\n \n}",
  "sourcePath": "/Users/ericaong/Desktop/cxa/Edge/rating/contracts/Transaction.sol",
  "compiler": {
    "name": "solc",
    "version": "0.5.8+commit.23d335f2.Emscripten.clang"
  },
  "schemaVersion": "3.0.11",
  "updatedAt": "2019-07-12T22:54:18.692Z",
  "devdoc": {
    "methods": {}
  },
  "userdoc": {
    "methods": {}
  }
}