{
  "contractName": "Transaction",
  "abi": [
    {
      "constant": true,
      "inputs": [
        {
          "name": "",
          "type": "bytes32"
        }
      ],
      "name": "amountReceived",
      "outputs": [
        {
          "name": "",
          "type": "uint64"
        }
      ],
      "payable": false,
      "stateMutability": "view",
      "type": "function"
    },
    {
      "constant": true,
      "inputs": [
        {
          "name": "",
          "type": "uint256"
        }
      ],
      "name": "userList",
      "outputs": [
        {
          "name": "",
          "type": "bytes32"
        }
      ],
      "payable": false,
      "stateMutability": "view",
      "type": "function"
    },
    {
      "inputs": [
        {
          "name": "userNames",
          "type": "bytes32[]"
        }
      ],
      "payable": false,
      "stateMutability": "nonpayable",
      "type": "constructor"
    },
    {
      "constant": true,
      "inputs": [
        {
          "name": "user",
          "type": "bytes32"
        }
      ],
      "name": "totalAmountFor",
      "outputs": [
        {
          "name": "",
          "type": "uint64"
        }
      ],
      "payable": false,
      "stateMutability": "view",
      "type": "function"
    },
    {
      "constant": false,
      "inputs": [
        {
          "name": "user",
          "type": "bytes32"
        },
        {
          "name": "amount",
          "type": "uint64"
        }
      ],
      "name": "setAmount",
      "outputs": [],
      "payable": false,
      "stateMutability": "nonpayable",
      "type": "function"
    }
  ],
  "bytecode": "0x608060405234801561001057600080fd5b5060405161039f38038061039f8339810180604052602081101561003357600080fd5b81019080805164010000000081111561004b57600080fd5b8281019050602081018481111561006157600080fd5b815185602082028301116401000000008211171561007e57600080fd5b5050929190505050806001908051906020019061009c9291906100a3565b5050610115565b8280548282559060005260206000209081019282156100df579160200282015b828111156100de5782518255916020019190600101906100c3565b5b5090506100ec91906100f0565b5090565b61011291905b8082111561010e5760008160009055506001016100f6565b5090565b90565b61027b806101246000396000f3fe608060405234801561001057600080fd5b506004361061004c5760003560e01c80634ca2f7d4146100515780634fab4c6a146100a75780639f4216e8146100fd578063c49292671461013f575b600080fd5b61007d6004803603602081101561006757600080fd5b8101908080359060200190929190505050610181565b604051808267ffffffffffffffff1667ffffffffffffffff16815260200191505060405180910390f35b6100d3600480360360208110156100bd57600080fd5b81019080803590602001909291905050506101a8565b604051808267ffffffffffffffff1667ffffffffffffffff16815260200191505060405180910390f35b6101296004803603602081101561011357600080fd5b81019080803590602001909291905050506101d8565b6040518082815260200191505060405180910390f35b61017f6004803603604081101561015557600080fd5b8101908080359060200190929190803567ffffffffffffffff1690602001909291905050506101f9565b005b60006020528060005260406000206000915054906101000a900467ffffffffffffffff1681565b600080600083815260200190815260200160002060009054906101000a900467ffffffffffffffff169050919050565b600181815481106101e557fe5b906000526020600020016000915090505481565b8060008084815260200190815260200160002060008282829054906101000a900467ffffffffffffffff160192506101000a81548167ffffffffffffffff021916908367ffffffffffffffff160217905550505056fea165627a7a7230582019de7650efb35c35c678b7c0fb172112944055042ef92498d9ef0dbafd8d69d30029",
  "source": "pragma solidity >=0.4.17;\n// We have to specify what version of compiler this code will compile with\n\ncontract Transaction {\n  /* mapping field below is equivalent to an associative array or hash.\n  */\n  \n  mapping (bytes32 => uint64) public amountReceived;\n  \n  /* We will use an array of bytes32 to store the list of users\n  */\n  \n  bytes32[] public userList;\n\n  /* This is the constructor which will be called once when you\n  deploy the contract to the blockchain. When we deploy the contract,\n  we will pass an array of users for which users will give amount\n  */\n  constructor (bytes32[] memory userNames) public {\n    userList = userNames;\n  }\n\n  // This function returns the total amount a user has received so far\n  function totalAmountFor(bytes32 user) view public returns (uint64) {\n    return amountReceived[user];\n  }\n\n  // This function increments the vote count for the specified user. Equivalent to upvoting\n  function setAmount(bytes32 user, uint64 amount) public {\n    amountReceived[user] += amount;\n  }\n}",
  "sourcePath": "/Users/ericaong/Desktop/cxa/Edge/rating/contracts/Transaction.sol",
  "compiler": {
    "name": "solc",
    "version": "0.5.8+commit.23d335f2.Emscripten.clang"
  },
  "schemaVersion": "3.0.11",
  "updatedAt": "2019-07-12T08:34:32.487Z",
  "devdoc": {
    "methods": {}
  },
  "userdoc": {
    "methods": {}
  }
}